:100000000C944A000C9469000C9469000C946900EB
:100010000C9469000C9469000C9469000C946900BC
:100020000C9469000C9469000C9469000C946900AC
:100030000C9469000C9469000C9469000C9469009C
:100040000C9430060C9469000C9469000C946900BF
:100050000C9469000C9469000C9469000C9469007C
:100060000C9469000C9447060C9469000C94690088
:100070000C9469000C9469000C9469000C9469005C
:100080000C9413010C9469000C945F010C946900AA
:100090000C94690011241FBECFEFD0E1DEBFCDBFAD
:1000A00011E0A0E0B1E0E4EDF4E100E00BBF02C03C
:1000B00007900D92A030B107D9F713E0A0E0B1E0AE
:1000C00001C01D92A431B107E1F70E949C090C9474
:1000D000680A0C940000DF93CF9300D000D0CDB716
:1000E000DEB79A83898389819A81009719F41092E7
:1000F000010114C089819A818130910521F481E048
:10010000809301010BC089819A818230910521F48D
:1001100082E08093010102C01092010180910101EF
:10012000282F30E03C832B838B819C81813091058B
:10013000C1F02B813C812230310511F18B819C81F2
:10014000009769F5AEE2B0E0EEE2F0E080818E7FEC
:100150008C93AEE2B0E0EEE2F0E080818D7F8C9394
:100160002CC0AEE2B0E0EEE2F0E080818D7F8C93B7
:10017000AEE2B0E0EEE2F0E0808181608C931DC0E1
:10018000AEE2B0E0EEE2F0E080818E7F8C93AEE2F2
:10019000B0E0EEE2F0E0808182608C930EC0AEE2CF
:1001A000B0E0EEE2F0E080818E7F8C93AEE2B0E0D2
:1001B000EEE2F0E080818D7F8C930F900F900F9096
:1001C0000F90CF91DF910895DF93CF93CDB7DEB736
:1001D000E9ECF0E088E18083EDECF0E01082ECECFB
:1001E000F0E080E18083EAECF0E086E08083A9EC37
:1001F000B0E0E9ECF0E0808180688C9310925701C8
:100200001092560110920401109203011092AB015A
:100210001092AA01109259011092580110925501A2
:10022000CF91DF9108951F920F920FB60F92009019
:100230005B000F9211242F933F938F939F93EF9323
:10024000FF93DF93CF93CDB7DEB7809156019091A6
:100250005701019690935701809356018091560162
:10026000909157018035910521F410925701109219
:1002700056012091560130915701809103019091D0
:1002800004012817390759F08091560190915701C0
:10029000EEECF0E02081FC01EB5FFE4F2083CF917C
:1002A000DF91FF91EF919F918F913F912F910F904F
:1002B00000925B000F900FBE0F901F9018951F9239
:1002C0000F920FB60F9200905B000F9211242F93A4
:1002D0003F938F939F93AF93BF93EF93FF93DF93DE
:1002E000CF93CDB7DEB72091AA013091AB018091B9
:1002F0005801909159012817390701F1809158014F
:1003000090915901019690935901809358018091E1
:100310005801909159018035910521F410925901AD
:1003200010925801AEECB0E08091580190915901C3
:10033000FC01E65AFE4F80818C9309C0A9ECB0E025
:10034000E9ECF0E080818F7B8C9310925501CF9186
:10035000DF91FF91EF91BF91AF919F918F913F916D
:100360002F910F9000925B000F900FBE0F901F9087
:100370001895DF93CF93CDB7DEB72091AA013091C6
:10038000AB0180915801909159012817390749F123
:1003900081E080935501A9ECB0E0E9ECF0E08081C8
:1003A00080648C93809158019091590101969093AB
:1003B00059018093580180915801909159018035DD
:1003C000910521F41092590110925801AEECB0E061
:1003D0008091580190915901FC01E65AFE4F8081AD
:1003E0008C93CF91DF910895DF93CF930F92CDB788
:1003F000DEB789838091AA019091AB010196909319
:10040000AB018093AA018091AA019091AB01803544
:10041000910521F41092AB011092AA012091AA013A
:100420003091AB01809158019091590128173907FB
:1004300049F08091AA019091AB01FC01E65AFE4F70
:100440008981808380915501882311F40E94B9012C
:100450000F90CF91DF910895DF93CF930F92CDB797
:10046000DEB78983E8ECF0E08081882F90E080722D
:1004700090700097B9F3EEECF0E0898180830F90E3
:10048000CF91DF910895DF93CF9300D00F92CDB736
:10049000DEB79B838A8319823AC08091AA0190912A
:1004A000AB0101969093AB018093AA018091AA01C0
:1004B0009091AB018035910521F41092AB0110921F
:1004C000AA012091AA013091AB018091580190912D
:1004D00059012817390761F08091AA019091AB0169
:1004E000EA81FB812081FC01E65AFE4F20830AC08D
:1004F00081E089831092AB011092AA0110925901F8
:10050000109258018A819B8101969B838A838981FD
:10051000882331F4EA81FB818081882309F0BDCFF3
:1005200080915501882311F40E94B9010F900F901A
:100530000F90CF91DF910895DF93CF93CDB7DEB7C2
:10054000E8ECF0E080818074CF91DF910895DF9333
:10055000CF930F92CDB7DEB720915601309157015E
:10056000809103019091040119822817390711F035
:1005700081E0898389810F90CF91DF910895DF9386
:10058000CF93CDB7DEB7809103019091040101961E
:1005900090930401809303018091030190910401E1
:1005A0008035910521F4109204011092030180918D
:1005B000030190910401FC01EB5FFE4F8081CF911C
:1005C000DF910895DF93CF930F92CDB7DEB704C0CC
:1005D000EEECF0E080818983E8ECF0E08081882314
:1005E000BCF30F90CF91DF910895DF93CF93CDB7F8
:1005F000DEB78FEF9FEF9093F3028093F202109299
:100600004F0210924E028DE00E94F4018AE00E9497
:10061000F401CF91DF910895DF93CF9300D0CDB750
:10062000DEB78A8319828A818A3320F48A818053D3
:1006300089830DC08A81873420F48A818753898316
:1006400006C08A81873618F48A8187558983898113
:100650000F900F90CF91DF9108951F93DF93CF9369
:1006600000D000D00F92CDB7DEB71D821C828091E2
:10067000F2029091F302893091050CF451C08091FF
:10068000F2029091F3020397FC01E455FE4F808142
:100690008A3209F045C01A8219820EC089819A8176
:1006A000FC01E455FE4F90818C8189278C838981E0
:1006B0009A8101969A8389838091F2029091F30244
:1006C0009C012350304089819A818217930734F32B
:1006D0008091F2029091F3020297FC01E455FE4FE3
:1006E00080810E940C03882F90E082959295907FE4
:1006F0009827807F9827182F8091F2029091F3021B
:100700000197FC01E455FE4F80810E940C03812B70
:100710008B839C818B81981761F481E08D8309C064
:100720008091F2029091F3028630910514F081E0FD
:100730008D838D810F900F900F900F900F90CF9120
:10074000DF911F910895DF93CF9300D000D00F92D7
:10075000CDB7DEB71D821C8280914C0290914D0274
:10076000FC01E455FE4F80818C3209F061C080911C
:100770004C0290914D020196FC01E455FE4F8081A0
:100780008C3209F455C080914C0290914D02019633
:100790009B838A8305C08A819B8101969B838A8380
:1007A0002091F2023091F3028A819B818217930794
:1007B00084F48A819B81FC01E455FE4F80818C3258
:1007C00041F08A819B81FC01E455FE4F80818A3291
:1007D00011F78A819B81FC01E455FE4F808189835A
:1007E0008A819B81FC01E455FE4F108280914C026E
:1007F00090914D02019684559E4F0E94FB099D8366
:100800008C838A819B81FC01E455FE4F8981808322
:1008100089818C3239F48A819B8190934D02809337
:100820004C0206C08FEF9FEF90934D0280934C02D5
:100830008C819D810F900F900F900F900F90CF9112
:10084000DF910895DF93CF9300D0CDB7DEB78091CD
:10085000F2029091F30218161906A4F584E20E94A0
:10086000F40185E40E94F40185E40E94F40185E42A
:100870000E94F40185E40E94F40185E40E94F401E1
:100880008CE20E94F4011A8219820DC089819A813A
:10089000FC01E455FE4F80810E94F40189819A8118
:1008A00001969A8389832091F2023091F302898123
:1008B0009A818217930754F38DE00E94F4018AE035
:1008C0000E94F4010F900F90CF91DF910895DF9374
:1008D000CF930F92CDB7DEB76DC00E94BF02898360
:1008E00089818432B1F48091F2029091F3022FEF6A
:1008F0008F3F920749F080914E0290914F020196EE
:1009000090934F0280934E021092F3021092F202E3
:1009100051C089818D3019F089818A30F1F480913C
:10092000F2029091F3028430910584F00E942D032D
:10093000882319F00E94050809C080914E02909109
:100940004F02019690934F0280934E028FEF9FEFDC
:100950009093F3028093F2022DC08091F202909165
:10096000F3022FEF8F3F920729F12091F20230918D
:10097000F302F901E455FE4F89818083C901019694
:100980009093F3028093F2028091F2029091F3022D
:10099000803A910579F48FEF9FEF9093F302809363
:1009A000F20280914E0290914F02019690934F0275
:1009B00080934E020E94A702882309F08ECF0F90E9
:1009C000CF91DF910895DF93CF9300D0CDB7DEB7FD
:1009D0009A8389838091F0029091F1029C01205BBF
:1009E0003D4F89819A81B9014AE050E00E94190A7D
:1009F00009C08091F0029091F10201969093F1026A
:100A00008093F0028091F0029091F102FC01E05B92
:100A1000FD4F8081882369F72091F0023091F10227
:100A2000F901E05BFD4F8CE28083C9010196909350
:100A3000F1028093F0020F900F90CF91DF91089513
:100A4000DF93CF9300D0CDB7DEB79A8389834981F6
:100A50005A818091F0029091F1029C01205B3D4F00
:100A6000CA01B9014AE050E00E94190A09C0809108
:100A7000F0029091F10201969093F1028093F002BE
:100A80008091F0029091F102FC01E05BFD4F8081CA
:100A9000882369F72091F0023091F102F901E05BBF
:100AA000FD4F8CE28083C90101969093F1028093FF
:100AB000F0020F900F90CF91DF910895DF93CF93C5
:100AC00000D00F92CDB7DEB719822091F00230919D
:100AD000F102F901E05BFD4F8AE28083C9010196D2
:100AE0009093F1028093F00281E090E09B838A83EF
:100AF0000EC08A819B81FC01E05BFD4F9081898162
:100B0000892789838A819B8101969B838A8380912F
:100B1000F0029091F1029C01215030408A819B812A
:100B20008217930734F38981482F50E08091F002B7
:100B30009091F1029C01205B3D4FCA01B90140E157
:100B400050E00E94420A8091F0029091F1020296D8
:100B50009B838A832EC08091F0029091F102FC0168
:100B6000E05BFD4F80818136D8F08091F00290915A
:100B7000F102FC01E05BFD4F8081873688F4209113
:100B8000F0023091F1028091F0029091F102FC01AB
:100B9000E05BFD4F80818052F901E05BFD4F808377
:100BA0008091F0029091F10201969093F10280936E
:100BB000F0022091F0023091F1028A819B81281786
:100BC000390749F62091F0023091F102F901E05B1A
:100BD000FD4F8DE08083C90101969093F1028093CF
:100BE000F0022091F0023091F102F901E05BFD4F3B
:100BF0008AE08083C90101969093F1028093F0020C
:100C00008091F0029091F102FC01E05BFD4F1082B7
:100C100001969093F1028093F00280E592E00E94A9
:100C200043020F900F900F90CF91DF910895DF93C3
:100C3000CF93CDB7DEB7109201031092F502109258
:100C4000F402EEE6F0E082E08083E4E4F0E08BE0A2
:100C50008083E7E4F0E089EF8083CF91DF9108950E
:100C60001F920F920FB60F9211248F93DF93CF93A1
:100C7000CDB7DEB7809101038F5F80930103CF91E1
:100C8000DF918F910F900FBE0F901F9018951F92BC
:100C90000F920FB60F9200905B000F9211242F93CA
:100CA0003F934F935F938F939F93AF93BF93EF9334
:100CB000FF93DF93CF93CDB7DEB780910903482F21
:100CC00050E0E8E7F0E08081282F30E0E9E7F0E04D
:100CD0008081882F90E0982F8827822B932B9C016E
:100CE000CA01880F991FFC01E05FFC4F318320830C
:100CF000809109038F5F8093090380910903882302
:100D000011F010920903ACE7B0E080910903882F3D
:100D100090E0FC01E65FFC4F808180648C93AAE741
:100D2000B0E0EAE7F0E0808180648C93CF91DF91BE
:100D3000FF91EF91BF91AF919F918F915F914F91F3
:100D40003F912F910F9000925B000F900FBE0F907C
:100D50001F901895DF93CF93CDB7DEB7ADE2B0E02B
:100D6000EDE2F0E0808181608C93ADE2B0E0EDE2F5
:100D7000F0E0808182608C93CF91DF910895DF93C2
:100D8000CF93CDB7DEB71092090310920A0381E02A
:100D900080930B0382E080930C03EAE7F0E080E8A5
:100DA0008083AAE7B0E0EAE7F0E0808187608C9377
:100DB000AAE7B0E0EAE7F0E0808188608C93ACE7D6
:100DC000B0E080910903882F90E0FC01E65FFC4FC2
:100DD000808180648C93AAE7B0E0EAE7F0E080814C
:100DE00080648C93CF91DF910895DF93CF93CDB73B
:100DF000DEB780910F03882379F4209105033091A9
:100E0000060380910703909108032817390720F4FF
:100E100081E080930F0311C080910F03813069F44A
:100E200020910503309106038091070390910803F8
:100E30002817390710F010920F03CF91DF91089512
:100E4000DF93CF9300D0CDB7DEB78091F702282F84
:100E500030E03A83298389819A81009779F029814A
:100E60003A812130310571F51092F702AEE2B0E01F
:100E7000EEE2F0E0808180648C9324C08091FE02D9
:100E80008F5F8093FE029091FE028091FC02891791
:100E900058F0AEE2B0E0EEE2F0E080818F7B8C9320
:100EA00081E08093F7020EC08091FE02282F30E08F
:100EB0008091FC02882F90E004968217930714F427
:100EC0001092FE020F900F90CF91DF910895DF9363
:100ED000CF93CDB7DEB7ADE2B0E0EDE2F0E08081D8
:100EE00080648C931092FE0281E08093FC02109249
:100EF000F702CF91DF910895DF93CF93CDB7DEB79F
:100F0000E0E2F0E0808180748093F602E0E2F0E0BD
:100F1000808180788093F602CF91DF910895DF93EE
:100F2000CF93CDB7DEB7A2E2B0E0E2E2F0E080819D
:100F300080648C93A2E2B0E0E2E2F0E0808180681D
:100F40008C930E947C07CF91DF910895DF93CF931C
:100F5000CDB7DEB70E94F5028FEF9FEF909313039A
:100F60008093120384E28093500280E580935102C3
:100F700086E48093520282E58093530288E4809352
:100F8000540289E4809355028CE28093560282E3F6
:100F9000809357028CE28093580281E38093590238
:100FA0008CE280935A0281E380935B028CE280930F
:100FB0005C0280910001805D80935D028EE090E094
:100FC0009093F1028093F0020E945E0583E5809386
:100FD000540284E58093550287E090E09093F102FB
:100FE0008093F0021092F8021092F9021092FA0225
:100FF0001092FB0210920B0310920C0310920D033F
:1010000010920E03CF91DF910895DF93CF93CDB768
:10101000DEB78091AC01803509F05BC08091AD01F5
:10102000863409F056C08091AE01823509F051C076
:101030008091AF01833589F48091B001803569F4E6
:1010400085E090E090934D0280934C020E94A303B0
:1010500090930803809307033CC08091AF018334D1
:10106000F9F48091B0018035D9F485E090E0909357
:101070004D0280934C020E94A3039093030380933C
:10108000020380914C0290914D022FEF8F3F920707
:1010900001F10E94A303909300038093FF0219C003
:1010A0008091AF018235A9F48091B001833589F434
:1010B00085E090E090934D0280934C0210921303D0
:1010C000109212030E94A3038093020181E0809397
:1010D000FD02CF91DF910895DF93CF93CDB7DEB7B7
:1010E00087E090E09093F1028093F00280910403F6
:1010F000882F90E00E9420058091050390910603BF
:101100000E94200580910201882F90E00E94200516
:101110008091F0029091F10201979093F1028093F7
:10112000F0020E945E05CF91DF910895DF93CF9387
:10113000CDB7DEB780910F03813021F485E0809335
:1011400004032CC080911203909113038330910506
:1011500040F084E0809304031092FD02109202019B
:101160001DC08091FD02882331F483E08093040345
:101170001092020113C080914E0290914F0200978D
:1011800051F082E08093040310924F0210924E02BD
:101190001092020103C081E0809304038091040354
:1011A0008093FC02CF91DF910895DF93CF93CDB769
:1011B000DEB78091F4029091F50201969093F502CA
:1011C0008093F4028091F4029091F50227E280313D
:1011D000920721F41092F5021092F4028091F40229
:1011E0009091F5022AE030E0B9010E94E7090097EA
:1011F00009F055C0A8958091F4029091F50224E180
:1012000030E0B9010E94E7098091F4029091F50263
:1012100022E330E0B9010E94E7098091F402909145
:10122000F50224E630E0B9010E94E7090097F1F4E5
:101230008091FF0290910003009751F0809112037A
:10124000909113030196909313038093120304C0AB
:1012500010921303109212038091100390911103C6
:1012600090930603809305030E9496088091F402F0
:101270009091F50228EC30E0B9010E94E70900974F
:1012800071F40E947C070E94200780910201882F40
:1012900090E00E946B000E94F5060E946C08CF91BE
:1012A000DF910895DF93CF9300D00F92CDB7DEB7D3
:1012B000E4E5F0E080818983E4E5F0E01082898153
:1012C000282F30E03B832A838A819B8184309105DB
:1012D00011F12A813B81253031055CF48A819B81A3
:1012E0008130910589F02A813B812230310579F0E6
:1012F0001DC08A819B818830910589F02A813B81BC
:101300002031310581F012C0109200010FC081E040
:10131000809300010BC082E08093000107C083E04E
:101320008093000103C084E0809300010F900F9030
:101330000F90CF91DF910895DF93CF93CDB7DEB7B4
:101340000E9452090E9417060E9467070E948F0799
:101350000E94AA060E94BF060E94E40084E190E079
:10136000909303038093020381E090E09093000345
:101370008093FF0283E090E0909313038093120325
:1013800080E491E0909308038093070310920F0389
:101390000E949608789488E190E028E00FB6F894CF
:1013A000A895809360000FBE209360000E94A6075E
:1013B00080910103882341F0809101038150809343
:1013C00001030E94D508F4CF0E946704F1CFAA1B45
:1013D000BB1B51E107C0AA1FBB1FA617B70710F020
:1013E000A61BB70B881F991F5A95A9F78095909552
:1013F000BC01CD010895FC0188279927E89421912B
:101400002032E9F3293010F02E30C8F32B3241F0AE
:101410002D3239F4689404C00E943A0A820F911D5B
:10142000219120532A30C0F31EF4909581959F4F4F
:101430000895FB019F01E8944230C4F04532B4F4B2
:101440004A3029F497FB1EF4909581959F4F642FA5
:1014500077270E94E709805D8A330CF0895D8193CC
:10146000CB010097A1F716F45DE251931082C901F8
:101470000C94580A7AE0979F902D879F802D910DAC
:1014800011240895FB019F01423074F0453264F449
:10149000642F77270E94E709805D8A330CF0895D0D
:1014A0008193CB010097A1F71082C9010C94580ACF
:1014B000DC01FC01672F71917723E1F7329704C0BB
:1014C0007C916D9370836291AE17BF07C8F3089546
:0414D000F894FFCFBE
:00000001FF
